:020000040800F2
:10000000C85A00208502000803320008472D000866
:100010000132000847090008253C000800000000E4
:10002000000000000000000000000000C501000802
:10003000750B00080000000021020008C53600080A
:100040009F0200089F0200089F0200089F0200080C
:100050009F0200089F0200089F0200089F020008FC
:100060009F0200089F0200089F0200089F020008EC
:10007000C50A00089F0200089F0200089F020008AE
:100080009F0200089F0200089F0200089F020008CC
:1000900049090008550900089F0200089F0200084E
:1000A0009F0200089F0200089F0200089F020008AC
:1000B0009F0200089F0200089F0200089F0200089C
:1000C0009F0200089F0200089F0200089F0200088C
:1000D0009F020008713B00089F0200087D3B00085A
:1000E0009F0200089F0200089F0200089F0200086C
:1000F0009F0200089F0200089F0200089F0200085C
:100100009F0200089F0200089F0200089F0200084B
:100110009F020008853800089F020008A1370008E8
:100120009F0200089F0200089F0200089F0200082B
:100130009F0200089F0200089F0200089F0200081B
:10014000610900086D0900089F0200089F0200086D
:100150009F0200089F0200089F0200089F020008FB
:100160009F0200089F0200089F0200089F020008EB
:100170009F0200089F0200089F0200080000000084
:100180009F0200089F020008913800089F020008A3
:100190009F0200089F0200089F0200089F020008BB
:1001A0009F0200089F0200089F020008DFF810D09D
:1001B00000F088FB00480047815B0008AFF3008037
:1001C000C85A00202C4B19680868B0E8F04F80F33B
:1001D0000988BFF36F8F4FF0000080F311887047DC
:1001E0000000000008480068006880F308884FF0AD
:1001F000000080F3148862B661B6BFF34F8FBFF37F
:100200006F8F00DF00BF00BF08ED00E0DFF80C00DB
:10021000016841F470010160704700BF88ED00E0A3
:10022000EFF30980BFF36F8F134B1A681EF0100FA6
:1002300008BF20ED108A20E9F04F106009B44FF09C
:10024000500080F31188BFF34F8FBFF36F8F07F01B
:100250001BFB4FF0000080F3118809BC1968086887
:10026000B0E8F04F1EF0100F08BFB0EC108A80F31A
:100270000988BFF36F8F704750000020EFF30580AF
:10028000704700000648804706480047FEE7FEE743
:10029000FEE7FEE7FEE7FEE7FEE7FEE7FEE7FEE736
:1002A00091370008AD0100082DE9F05F05460020F8
:1002B00092469B4688460646814640241BE02846D7
:1002C00041464746224600F047FA53465A46C01A6E
:1002D000914110D311461846224600F02EFA2D1AED
:1002E00067EB01084F4622460120002100F025FA65
:1002F00017EB00094E41201EA4F10104DFDC484643
:1003000031462A464346BDE8F09F40EA01039B0779
:1003100003D009E008C9121F08C0042AFAD203E07A
:1003200011F8013B00F8013B521EF9D27047D2B2DE
:1003300001E000F8012B491EFBD270470022F6E7CE
:1003400010B513460A4604461946FFF7F0FF20464B
:1003500010BD2DE9FE4F804681EA0300C00F0C4618
:10036000009021F0004123F00045B8EB0200A941C4
:1003700005D24046214690461C460B46024623F0D5
:100380000040104347D0270DC7F30A00C3F30A51BA
:100390000290401A019040286BDAC3F3130040F436
:1003A000801B0098924620B10023D2EB030A63EB36
:1003B0000B0B01985946C0F14002504600F0BDF9C0
:1003C00006460D4650465946019A00F0D5F910EB05
:1003D00008006141002487EA115284EAE7731A4356
:1003E00040D0009A62B3019A012A4FEA075215DC05
:1003F000001B61EB02014FF0004202EA0752CDE917
:100400000042001C41F5801132462B4600F00CFAE8
:1004100003B0BDE8F08F40462146F9E7001B61EBD1
:100420000201001C41F5801300185B412018A2F561
:10043000001747EB030140EAD570B6196D4111E092
:100440006D084FEA360645EAC0754FEA0752001BB1
:1004500061EB0201001C41F5801149084FEA3000B0
:100460000019514132462B4603B0BDE8F04F00F071
:10047000CCB90098012240000023D0EB020263EBCC
:10048000E073009821464FEAE074B8EB000061EB9E
:100490000401E9E783F000435BE781F0004158E79E
:1004A0002DE9FE4F81EA030404F0004421F00041ED
:1004B00000944FF0000B23F0004350EA01045ED09B
:1004C00052EA03045BD0C3F30A54C1F30A552C4427
:1004D000A4F2F3340194A0FB0254C1F3130141F4DC
:1004E0008011C3F3130343F4801301FB024400FBA8
:1004F000034E840A970A44EA815447EA8357A4FBCF
:10050000076802958D0A05FB07854FEA932C04FBCB
:100510000C542705029D4FEA065847EA1637B5EBFB
:1005200008056EEB070C870E920E47EA811742EA28
:100530008312A7FB0201B6EB0B0164EB00042B0D49
:1005400043EA0C335E1844EB1C50DA465146E7FB95
:100550000201C5F313044FEA0B3343EA14534FEA85
:100560000432019C43EA0603A4F10C040294009CAB
:10057000CDE900B400F058F903B0BDE8F08F0020D9
:100580000146F9E72DE9F04D81EA030404F0004B40
:1005900021F0004514464FF0000A23F0004150EAD4
:1005A000050220D054EA01021DD0C5F30A570246C5
:1005B000C5F31303C1F31300C1F30A5640F48015C9
:1005C00043F48013A7EB0608101BD64608F2FD384B
:1005D00073EB050002D308F1010801E092185B41BA
:1005E000B8F1000F03DA00200146BDE8F08D0020CD
:1005F0004FF48011064684460EE0171B73EB050787
:1006000005D3121B63EB050306434CEA010C4908B2
:100610004FEA300092185B4150EA0107EDD152EAEF
:10062000030012D082EA040083EA0501084305D0E2
:10063000101BAB4106D20122002306E000224FF03E
:10064000004302E06FF0010253101AEB06004CEB7E
:10065000085110EB0A0041EB0B01BDE8F04D00F032
:10066000D4B80EB5C10F80EAE0700844CA07002173
:1006700040F233438DE80E000A460B4600F0D4F8F2
:1006800003B000BD0EB540F2334102910021CDE927
:1006900000110A460B4600F0C7F803B000BD70B564
:1006A000C1F30A5201F000450024C1F3130140F2E6
:1006B000FF3341F480119A4201DA002070BD40F20C
:1006C00033439A42A2F2334203DC524200F044F830
:1006D00000E090402C43F1D0404270BD00F0004259
:1006E00030F000400AD0C10D01F56071C0F3160072
:1006F00042EA0151C20840071143704700200146F9
:10070000704701F0004330B421F0004150EA01028B
:1007100006D00A0DA2F56072C1F31301002A02DCB3
:1007200030BC00207047440F44EAC104C100E01807
:1007300030BC00EBC25000F031B8202A04DB203A74
:1007400000FA02F1002070479140C2F1200320FA24
:1007500003F3194390407047202A04DB203A21FA22
:1007600002F00021704721FA02F3D040C2F12002CA
:100770009140084319467047202A06DBCB17203AE0
:1007800041FA02F043EAE07306E041FA02F3D04096
:10079000C2F1200291400843194670470029A8BFC2
:1007A0007047401C490008BF20F00100704710B49A
:1007B000B0FA80FC00FA0CF050EA010404BF10BC4F
:1007C000704749B1CCF1200421FA04F411FA0CF17C
:1007D00018BF012121430843A3EB0C01CB1D4FEAB5
:1007E00000614FEA102042BF002010BC704700EBB0
:1007F000C35010440029A4BF10BC7047401C4900DE
:1008000008BF20F0010010BC704710B5141E73F132
:10081000000408DA401C41F1000192185B411A43C0
:1008200001D120F0010010BD2DE9F04D92469B460C
:1008300011B1B1FA81F202E0B0FA80F220329046B2
:10084000FFF77BFF04460F4640EA0A0041EA0B012E
:1008500053465A46084313D0114653EA010019D0B3
:10086000C8F140025046FFF777FF05460E46504656
:1008700059464246FFF761FF084305D0012004E0D6
:1008800020463946BDE8F08D0020054346EAE07673
:100890002C4337430A986305E40AA0EB08000022C2
:1008A000FD0A44EA47540A3002D500200146E9E730
:1008B000010510196941DDE9084500196941BDE8E4
:1008C000F04DA2E7064C074D06E0E06840F001035A
:1008D00094E8070098471034AC42F6D3FFF76AFC5F
:1008E000648400088484000870B58D1810F8014BEA
:1008F00014F0030201D110F8012B231106D110F8D6
:10090000013B03E010F8016B01F8016B521EF9D1B5
:10091000ABB110F8012B04F00C048A1A0C2C03D094
:10092000A2EB84129B1C08E010F8014BA2EB0422FE
:10093000F8E712F8014B01F8014B5B1EF9D5A9420B
:10094000D4D3002070BDFEE7014800F0A8BA000033
:100950003C0E0020014800F0A2BA00003C0E00202E
:10096000014800F09CBA0000640E0020014800F02D
:1009700096BA0000640E002000B58BB00020012163
:10098000CDE9060108910090019002900390059036
:10099000049069460C4800F06BF90B4800F016FD16
:1009A0000221094800F0E9F80E2005906946074841
:1009B00000F05EF9054800F009FD0221034800F04F
:1009C000DCF80BB000BD00003C0E0020640E0020DF
:1009D00038B50C460546284600F04BFA0028FAD0F8
:1009E0000749E0686B460860206888606068C860F6
:1009F0002069086104F11402284600F0D0F838BDDF
:100A0000F44D002038B50E4C4FF4007525600025DC
:100A1000A560E560082525610A4C050A257060700F
:100A2000080AA070E170100A20716271180AA071A2
:100A3000E3716B4622460249034800F0B0F838BD26
:100A4000304E0020BC0000203C0E0020F8B51C46B3
:100A500015460E460746114800F00BFA0028FAD05A
:100A60000F484FF400716B46016000218160C16046
:100A7000082101610B48390A024601704770310AAA
:100A80008170C670290A01714571210A8171C47192
:100A90000349024800F083F8F8BD0000640E00200E
:100AA000304E0020BC000020DFED040A9FED041A48
:100AB00060EE200A80EE810A70470000DB0F49409B
:100AC00000003443014800F00FBD00005C1000201E
:100AD00001681823CAB2103AB2FBF3F2054B6FF368
:100AE0000901032A9B5CC36500D9091D816508467D
:100AF00070470000A082000810B5014600208B69F5
:100B00008A6A4FF0C07453B1B3F5005F15D072B16B
:100B1000012A0CD0022A0AD0032A09D104E01AB112
:100B2000012A06D0022A03D1C96AC90100D50120D1
:100B300010BDC96AA142FAD010BD002AF7D0012A1F
:100B4000F2D0022AF3D0032AF3D010BD30B50468E6
:100B5000256825F480252560046863608368402B40
:100B6000036803D099600068C26030BD9A60006875
:100B7000C16030BD704772B6FEE790F82020012AB0
:100B800007D0022A05D0416A41F480214162012048
:100B90007047006842690A43426100207047F0B51F
:100BA00090F820500468A468012D05D0022D03D0D0
:100BB000416A41F4802157E014F0406F01D1E50013
:100BC0004FD5C4F301640125A5401D608D684FF425
:100BD000C0739DB1CE6835434E6845EAC6050668C8
:100BE00003EB0417F5514FF4C275076805EB0415C4
:100BF0000E697E51097D012905D009E00E88CD6876
:100C000045EA4655EBE701684E5946F480764E5169
:100C10001179D579567941EA056195792D0445EA2E
:100C2000062529434FF4C676056806EB0416A9513C
:100C30001178D57841EA0561957852782D0445EA16
:100C4000022211434FF4C475026805EB041551519B
:100C5000006803EB0411425842F0010242500020A8
:100C6000F0BD416A41F4001141620120F0BD000075
:100C700010B590F82020012A07D0022A05D0416A39
:100C800041F480214162012010BD3B48D0F8002290
:100C900042F00102C0F80022D0F8002222F47C5277
:100CA000C0F80022D0F800224B6A42EA0322C0F8C2
:100CB00000220A7D02F01F0301229A40D0F81C3264
:100CC0009343C0F81C32CB69B3B9D0F80C329343CC
:100CD000C0F80C328C894B6864F31F434C6900EBFD
:100CE000C404C4F840320C890B6864F31F434C6998
:100CF00000EBC404C4F84432CB69012B16D1D0F800
:100D00000C321343C0F80C320C884B6864F31F4359
:100D10004C6900EBC404C4F840320C89CB6864F31E
:100D20001F434C6900EBC404C4F844328B69002BA8
:100D3000D0F804320ED01343C0F804320B69002BF4
:100D4000D0F8143208D01343C0F81432096A0129CC
:100D500004D008E09343EFE79343F5E7D0F81C1283
:100D60001143C0F81C12D0F8001221F00101C0F8A4
:100D70000012002010BD000000640040704770B5F4
:100D800090F82040012C05D0022C03D0416A41F498
:100D9000802128E0046809B32469A40720D04FF417
:100DA000D874056804EB01142D5915F004059560FD
:100DB00005682D591AD0ED08556005682C5904F0C6
:100DC0000204D4604FF4DA74056804EB01142E5960
:100DD00006F00F06082E0CD308250DE0E468DCE7CA
:100DE000416A41F400114162012070BD6D0D156032
:100DF000E3E72D5905F00F05156105682D59C5F379
:100E00000725956105682C59240C54614FF4DC7258
:100E1000046802EB0112A4581C700468A458240A48
:100E20005C700468A458240C9C700468A258120ECC
:100E3000DA704FF4DE72046802EB0112A4581C71E0
:100E40000468A458240A5C710468A458240C9C719A
:100E50000468A258120EDA71006829B1016941F0E4
:100E600020010161002070BDC16841F02001C16016
:100E7000F8E70246002092F82010012901D002294B
:100E80000CD111688A68520100D501208A681201CC
:100E900000D5401C8968C90000D5401C70472DE969
:100EA000F05F0546006800244669D0F80490876822
:100EB000D0F80CB0D0F810A0D0F81880F10748D0C6
:100EC000F90714D001218160B80703D5284600F046
:100ED000AAFA0CE0780702D54FF4006407E038075F
:100EE00002D54FF4805402E0284600F09BFAF80542
:100EF00016D529684FF480708860B80503D5284658
:100F000000F093FA0CE0780502D544F4005407E0B1
:100F1000380502D544F4804402E0284600F084FA03
:100F2000F80316D529684FF480308860B80303D5DC
:100F3000284600F07CFA0CE0780302D544F4004423
:100F400007E0380302D544F4803402E0284600F07C
:100F50006DFA300707D55FEACB6004D52968102009
:100F600044F40074C86070074FF0080707D55FEAC3
:100F70000B7004D52868C760284600F0A9F9B007AF
:100F800006D52868C068800702D0284600F0A2F97C
:100F9000700607D55FEACA6004D52968102044F4BA
:100FA00080640861B00607D55FEA0A7004D5286836
:100FB0000761284600F006FAF00606D528680069A1
:100FC000800702D0284600F0FEF9B00308D55FEA9A
:100FD000C96005D5296810204860284600F0F4F95A
:100FE000F00307D55FEA097004D5286847602846F2
:100FF00000F01EFA300446D55FEA497040D5F0058E
:1010000004D55FEAC87001D044F00104B00504D5EE
:101010005FEA887001D544F00204700504D55FEAE8
:10102000487001D544F00404300529D518F0700F3C
:1010300026D008F07000402815D006DC102809D012
:1010400020280AD0302816D10AE050280ED0602877
:1010500011D10EE044F008040DE044F010040AE061
:1010600044F0200407E044F0400404E044F080042D
:1010700001E044F480742868816921F07001816185
:10108000296804204860002C05D0686A2043686203
:101090002846FFF773FEBDE8F09F70B5040003D04B
:1010A00094F8200010B104E0012070BD204600F04B
:1010B00081F82068016841F00101016000F0A8FC9E
:1010C0000546052604E000F0A3FC401B0A2811D8C1
:1010D00020684068C007F6D02068016821F002014E
:1010E000016000F095FC05460BE000F091FC401B10
:1010F0000A2806D9606A40F40030606284F82060F3
:10110000D2E7206840688007EFD4207E012820685D
:1011100001683DD021F080010160607E01282068D7
:10112000016838D021F040010160A07E01282068CC
:10113000016833D021F020010160E07E01282068A1
:1011400001682ED041F010010160207F0128206845
:10115000016829D021F008010160607F0128206822
:10116000016824D021F004010160D4E902010843A0
:10117000D4E90412114308436168491E08432168F9
:10118000C86100206062012084F82000002070BD4A
:1011900041F08001C0E741F04001C5E741F0200186
:1011A000CAE721F01001CFE741F00801D4E741F090
:1011B0000401D9E7F0B587B0044614216846FFF76B
:1011C000BDF83E4B3E48DFF8F0E01968D4F800C0A7
:1011D0003B4A03250226092710300024491CF44508
:1011E0002AD11960012907D1016841F0007101601D
:1011F000006800F000700590106840F00800106072
:101200001068CDE9005600F00800CDE90470694689
:101210002C48CDE9024500F0D7FA00220521142020
:1012200000F094FC142000F083FC0022052115201E
:1012300000F08CFC15203BE0DFF88CE0F44539D160
:10124000D0F800C04CF0806CC0F800C0D0F800C0EE
:1012500001290CF0806CCDF814C0196007D1016829
:1012600041F000710160006800F0007005901068A6
:1012700040F002001060106802AB00F00200059020
:1012800042F22000CDE9000683E8B00069460F482D
:1012900000F09AFA00220521402000F057FC40207F
:1012A00000F046FC00220521412000F04FFC4120C7
:1012B00000F03EFC07B0F0BD006400403C000020A0
:1012C00030380240000C0240006800400004024038
:1012D0007047000010B5364A0168364C8CB0914218
:1012E0002FD103AB05AA0021FFF749FD0598014660
:1012F000A0F20120062822D2DFE800F00303030356
:101300000707C0B220702C4904E0491FC8B22A491F
:101310006070403101EB001001880181BDF80C10B4
:1013200049BA0180BDF80E1049BA4180BDF81010CD
:1013300049BA81809DF81210817104F0C1FB0CB094
:1013400010BD1E4A9142FAD102AB04AA0021FFF758
:1013500016FD0498A0F50071013911D001290FD0B4
:10136000421100F01F01113AD0B2E07000EB4002D0
:1013700002EBC000124A02EB800004F097FCDEE7AB
:10138000401E0D49C0B2A070603101EB0010018811
:101390000181BDF8081049BA0180BDF80A1049BAA8
:1013A0004180BDF80C1049BA81809DF80E10C3E74A
:1013B00000640040B8000020484E00200068004053
:1013C00008540020704770477047000070B504460D
:1013D00090F82000012804D0606A40F40020606288
:1013E00018E0022084F820002068016821F0010143
:1013F000016000F00DFB05460EE000BF00F008FBA9
:10140000401B0A2808D9606A40F400306062052059
:1014100084F82000012070BD20684068C007EDD12D
:10142000606270BD70477047704770477047704783
:1014300070472DE9F0410446876D00F0E9FA064651
:1014400094F835000025022806D08020606584F8D5
:1014500034500120BDE8F0812068016821F01601B8
:1014600001602068416921F080014161206C08B968
:10147000A06C20B12068016821F00801016020689B
:10148000016821F0010101600CE000F0C1FA801B4D
:10149000052807D920206065032084F8350084F8EA
:1014A0003450D7E720680068C007EED194F85C108C
:1014B0003F208840B860012084F8350084F834501B
:1014C0000020C7E790F83510022903D0802141653C
:1014D00001207047052180F835100068016821F06F
:1014E00001010160002070472DE9F84304464FF0E8
:1014F0000009CDF8009063484FF41651A56D0068BF
:10150000B0FBF1F72E6894F85C10082000FA01F1A6
:1015100031420FD021680A6852070BD50A6822F0C1
:1015200004020A6094F85C108840A860606D40F086
:101530000100606594F85C104FF0010808FA01F0B2
:10154000304208D021684969090604D5A860606D59
:1015500040F00200606594F85C100420884030423E
:1015600008D021680968890704D5A860606D40F03B
:101570000400606594F85C1010208840304218D058
:1015800021680968090714D5A86020680168490323
:1015900004D50068000308D5A16C07E00168C905FF
:1015A00003D4016821F008010160216C09B12046D3
:1015B000884794F85C1020208840304231D0216860
:1015C0000968C9062DD5A86094F83500052820685B
:1015D000016806D0490347D5006800031DD4616C3B
:1015E0001CE021F0160101602068416921F08001B2
:1015F0004161206C08B9A06C20B12068016821F01D
:101600000801016094F85C103F208840A86084F8CD
:10161000358084F83490216D1FE0E16B09B12046DC
:101620008847606D00282BD0606DC00714D005205E
:1016300084F835002068016821F0010101600098FC
:10164000401C0090B84203D820680068C007F6D15B
:1016500084F8358084F83490E16C002910D001B012
:101660002046BDE8F04308470168C905D5D40168A4
:1016700021F01001016084F8358084F83490CCE7C3
:10168000BDE8F8834C0000202DE9F041044600F04D
:10169000BFF906465CB1022084F83500002584F8C5
:1016A00034502068016821F0010101600DE0012043
:1016B000BDE8F08100F0ACF9801B052805D9202099
:1016C0006065032084F83500F2E720680068C007F1
:1016D000F0D12268116820480140D4E90103184381
:1016E000D4E903363343184363691843A3691843A5
:1016F000E3691843236A18430843616A042903D144
:10170000D4E90B1319430843106020684069666AE6
:1017100020F0070130460E43012704280CD1A06AAF
:101720000643E06A40B12046FFF7E6F920B14020C9
:10173000606584F83570BAE7206846612046FFF797
:10174000C7F994F85C203F2191408160656584F879
:1017500035700020ACE700003F8010F070B5044603
:1017600090F83400002501280CD0012084F83400C2
:1017700094F835600020012E06D084F8340002254C
:10178000284670BD022070BD022684F83560606571
:101790002046FFF7DBF92068016841F00101016094
:1017A000EEE7000070B5044600F032F90546601C13
:1017B00002D004480078044400F02AF9401BA042FB
:1017C000FAD370BD400000202DE9F84FDFF8F8A1F2
:1017D0000022012403254FF00F090AF1040BAAF19E
:1017E000040E00BF0B6804FA02F63340B34270D116
:1017F0000F7907F00307012F01D0022F16D1876858
:101800004FEA420805FA08FC27EA0C07D1F80CC099
:101810000CFA08FC4CEA070CC0F808C04768B7434C
:101820000E79C6F3001696403E4346600E79F643A5
:10183000B6070AD0C7684FEA420C05FA0CF6B74360
:101840008E6806FA0CF63E43C6600E7906F0030673
:10185000022E10D1D60800EB8608D8F82060570772
:101860004FEAD76C09FA0CF7BE430F6907FA0CF779
:101870003743C8F8207006684FEA420C05FA0CF7A7
:10188000BE430F7907F0030707FA0CF737430760E9
:101890004E6816F4403F1CD04C4E376847F48047E2
:1018A0003760366822F0030706F480460096484EFB
:1018B00007EB060CDCF8086897073F0F09FA07F8F2
:1018C00026EA0806DFF80C81404503D14FF00008F6
:1018D00041E072E0DFF80081404502D14FF001089D
:1018E00039E0DFF8F880404502D14FF0020832E0DD
:1018F000DFF8EC80404502D14FF003082BE0DFF821
:10190000E480404502D14FF0040824E0DFF8D8809D
:10191000404502D14FF005081DE0DFF8D08040457A
:1019200002D14FF0060816E0DFF8C480404502D12E
:101930004FF007080FE0DFF8BC80404502D14FF0C0
:10194000080808E0DFF8B080404502D14FF00908F0
:1019500001E04FF00A0808FA07F848EA0608CCF850
:101960000888DAF800605746D1F804C09E435FEA61
:10197000CC2C00D51E433E60DBF800605F46D1F8FA
:1019800004C09E435FEA8C2C00D51E433E60DEF807
:1019900000607746D1F804C09E435FEA8C3C00D5D6
:1019A0001E433E60084F083F3E68D1F804C09E4386
:1019B0005FEACC3C00D51E433E60521C102AFFF467
:1019C00011AFBDE8F88F0000083C014044380240E8
:1019D00000300140000002400004024000080240C4
:1019E000000C0240001002400014024000180240A7
:1019F000001C024000200240002402400069084010
:101A000000D0012070470AB1816170470904FBE7EB
:101A1000014880687047000040000020024881684B
:101A20000278114481607047400000200B4810B5D7
:101A3000016841F400710160016841F48061016056
:101A4000016841F480710160032000F09FF80F20CD
:101A500000F006F800F050F8002010BD003C0240F5
:101A600030B505461F4887B00024016841F02001C9
:101A70000160006806A900F02000009001A800F0B5
:101A800069F90498A8B100F085F940001649174A91
:101A9000B0FBF1F11648491E026040F2E732C0E99E
:101AA0000324C0E90114846100F039FD040003D06F
:101AB00015E000F06FF9E9E70D4800F05FFD040064
:101AC0000DD1372000F034F8102D07D2002229461E
:101AD000372000F03BF80748056000E0012407B01C
:101AE000204630BD4038024040420F000014004004
:101AF000BC100020440000200C4882B0016841F472
:101B000080410160006800F4804000900748001F99
:101B1000016841F0805101600068002200F08050AF
:101B200000900F21901E02B000F010B8443802401F
:101B3000002809DB00F01F020121914040098000CC
:101B400000F1E020C0F8001170470000F0B40E4B27
:101B50001B680C46C3F30223C3F10705042D00D90B
:101B60000425191D072901D2002300E0DB1E0126F0
:101B700006FA05F1491E214099409E40761E164006
:101B80003143F0BC02F067B80CED00E0064900F00C
:101B9000070208684FF6FF03184040EA0220034A94
:101BA00010430860704700000CED00E00000FA05EB
:101BB0002DE9F8431748016841F080510160006841
:101BC000154F00F08050012600903E64FFF720FF83
:101BD00005464FF47A78114C05E000BFFFF718FF77
:101BE000401B40450DD86068C003F7D57E64FFF701
:101BF0000FFF0546464607E0FFF70AFF401BB042CD
:101C000002D90320BDE8F88360688003F4D5002082
:101C1000F8E700004038024000000E42007000402B
:101C20002DE9F0470E46050065D0DFF81481D8F89D
:101C30000000F7B200F00F00B04207D288F8007041
:101C4000D8F8000000F00F00B04254D128683D4C95
:101C5000810712D5400703D5206840F4E05020608A
:101C60002878000703D5206840F460402060206891
:101C7000A96820F0F000084320602878C0072DD024
:101C8000304968680839012812D0022813D0032887
:101C900011D00968890700292DDA216821F0030194
:101CA00001432160FFF7B4FE814641F2883A0EE01D
:101CB00009688903EFE709688901ECE7FFF7A8FEE7
:101CC000A0EB0901514502D90320BDE8F087206847
:101CD000696800F00C00B0EB810FEFD1D8F800106C
:101CE000404601F00F01B14207D90770006800F0CB
:101CF0000F00B04201D00120E7E72878400705D562
:101D00002068E96820F4E050084320602878000744
:101D100006D52068296920F4604040EAC1002060AF
:101D200000F058F82168084AC1F30311515CC8401B
:101D30000649086006480068FFF792FE0020C4E7E5
:101D4000003C024008380240A88200084C000020F5
:101D5000440000200F2202600C4A136803F00303C2
:101D60004360136803F0F0038360136803F4E053E7
:101D7000C36012684FF4E05303EAD20202610448E0
:101D8000006800F00F00086070470000083802404B
:101D9000003C02400448054900680968044AC1F350
:101DA0008221515CC84070474C0000200838024036
:101DB000B88200080448054900680968044AC1F36C
:101DC0004231515CC84070474C0000200838024046
:101DD000B8820008154810B5006810F00C021448CD
:101DE00013D04110042A0FD0082A0ED10F4C241F03
:101DF0002268236802F03F025B0207D52068C0F327
:101E00008810A0FB010106E0084610BD2168C1F35F
:101E10008811A1FB00010023FEF746FA2168C1F3F7
:101E20000141491C4900B0FBF1F010BD08380240E7
:101E30000024F4002DE9F84F04006ED02078DFF87C
:101E40004C93C007A9F104054AD009F104000168C8
:101E5000C1F38101012908D00068C0F38100022884
:101E60000AD1D9F80000400206D52868800337D58A
:101E700060680028E1D033E06068B0F5803F10D0A2
:101E8000B0F5A02F286810D020F480302860286892
:101E900020F4802028606068A8B1FFF7B9FD0646ED
:101EA0000DE0286840F48030F4E740F4802028609A
:101EB000F7E700BFFFF7ACFD801B642873D82868E4
:101EC0008003F7D50CE0FFF7A3FD064605E000BF51
:101ED000FFF79EFD801B6428F0D828688003F7D4A4
:101EE0002078DFF8AC8280074FF0000A3ED5A74883
:101EF000001D016811F00C0F08D00068C0F38100CC
:101F000002280BD1D9F80000400207D428688007C6
:101F100016D5E068012800D112E033E1E068B8B1DD
:101F20000120C8F80000FFF773FD064605E000BF7A
:101F3000FFF76EFD801B0228C0D828688007F7D500
:101F40002868216920F0F80040EAC10028600DE00F
:101F5000C8F800A0FFF75CFD064604E0FFF758FD57
:101F6000801B02281FD828688007F7D42078000734
:101F700022D5864F87486169703771B101210160B0
:101F8000FFF746FD064604E0FFF742FD801B0228EE
:101F900009D838688007F7D50EE0C0F800A0FFF731
:101FA00037FD064605E082E0FFF732FD801B022880
:101FB0007DD838688007F7D42078400768D5DFF8E7
:101FC000CCB100270BF13C0BDBF80000C0000BD4B8
:101FD000DBF8001041F08051CBF80010DBF8000076
:101FE000012700F0805000906B4E3068C00510D47F
:101FF000306840F480703060FFF70AFD009005E023
:10200000FFF706FD0099401A022850D83068C00535
:10201000F6D55E4EA0686C3601280FD005283068D2
:1020200010D020F001003060306820F004003060F3
:10203000A068B8B1FFF7ECFC00900FE0306840F00A
:102040000100F4E740F004003060F7E7FFF7E0FC40
:102050000099411A41F28830814266D83068800781
:10206000F4D50EE0FFF7D4FC009007E0FFF7D0FCBA
:102070000099411A41F28830814256D83068800771
:10208000F4D42FB1DBF8001021F08051CBF8001010
:10209000A069C8B33D49091D0968C1F3810102293E
:1020A0004AD00228504607D0C8F8600000E03CE063
:1020B000FFF7AEFC04463BE04746C8F86000FFF778
:1020C000A7FC064605E000BFFFF7A2FC801B022824
:1020D0002BD828688001F7D4D4E907010843A16A06
:1020E0002E4A490802EB0141626A41EA8211084323
:1020F00094F82C1040EA0161C9F8001001203866FC
:10210000FFF786FC044606E03EE000BFFFF780FCD8
:10211000001B022809D828688001F7D534E000BFE9
:10212000FFF776FC001B022802D90320BDE8F88FD8
:1021300028688001F4D427E00128F7D0D9F80000FE
:10214000E26900F4800191421CD1226A00F03F0153
:10215000914217D147F6C071626A0140B1EB821F0C
:1021600010D1A26A4FF0FF3300F4403103EB52026A
:10217000B1EB024F06D194F82C1000F07060B0EB78
:10218000016F01D00120D1E70020CFE704380240E1
:1021900000004742800E4742007000400000FFFFF1
:1021A00070B5040009D0606A002540B12561656101
:1021B000A56294F8510040B10CE0012070BD606848
:1021C000B0F5827FF4D0E561F2E784F85050204604
:1021D00000F044F8022084F851002068016821F0E2
:1021E00040010160A088218900F4827001F404415B
:1021F0000843A18901F400610843217C01F0020138
:102200000843217D01F001010843218B01F4007195
:102210000843217F01F03801084394F8201001F0B1
:1022200080010843218D01F40051084321680860B2
:10223000A069042101EA104094F8241001F0100173
:102240000843216848602068C16921F40061C161C8
:102250006565012084F85100002070BDF0B587B09D
:10226000044614216846FEF769F82A4A21680024CA
:102270002948022503260527914217D12649143102
:102280000A6842F480520A60096801F4805105919D
:10229000016841F0010101600068694600F0010039
:1022A0000590E020CDE900051C482CE01C4A914235
:1022B0002ED1194910310A6842F480420A60096837
:1022C00001F480410591016841F004010160016859
:1022D00001F004010591016841F00201016000680C
:1022E00002AA00F0020005900C20CDE9000582E86A
:1022F000D00069460B48FFF767FA4FF48060CDE9DC
:1023000000050948694602AA82E8D000FFF75CFA96
:1023100007B0F0BD003001403038024000000240FC
:102320000038004000080240000402402DE9FF4F41
:1023300081B0044690F8500000260E9F1D4693463B
:102340004FF0010901280FD04FF0010A84F850A086
:10235000FFF75EFB804694F85100616801280DD0BC
:10236000B1F5827F08D103E0022005B0BDE8F08F0F
:10237000A16809B9042801D00226C9E00298002802
:1023800065D0BBF1000FFBD0002DF9D094F85100BF
:10239000042802D0052084F8510000206065C4F8AC
:1023A00038B0E587A58702992163E586A586206474
:1023B000606420680168490603D4016841F0400167
:1023C0000160E068B0F5006F606803D0F0B3012DE4
:1023D00047D081E008B1012D3CD1206B21680088F5
:1023E000C860206B801C2063E08E401EE08631E0D8
:1023F0002068816889070FD5E18E69B1B9F1010FB5
:102400000AD1216B0988C160206B801C2063E08E9B
:10241000401EE0864FF0000920688168C9070CD093
:10242000E18F51B1C068A16B0880A06B801CA063D4
:10243000E08F401EE0874FF00109FFF7E9FAA0EBBB
:102440000800B84206D3781C04D001E009E05BE044
:1024500003265BE0E08E0028CAD1E08F0028C7D1B8
:1024600040E0206B216800780873206B401C2063DB
:10247000E08E401EE0862FE02068816889070FD536
:10248000E18E69B1B9F1010F0AD1216B09780173AD
:10249000206B401C2063E08E401EE0864FF0000958
:1024A00020688168C9070CD0E18F51B1C068A16B69
:1024B0000870A06B401CA063E08F401EE0874FF0C7
:1024C0000109FFF7A5FAA0EB0800B84202D3781C77
:1024D00002D0BAE7002FB8D0E08E0028CCD1E08F30
:1024E0000028C9D142463946204600F0B1FF18B154
:1024F0000126202060650BE0A06818B92068C1683B
:1025000080680090606D08B1012601E084F851A058
:10251000002084F85000304627E77047704710B518
:10252000040003D094F83D0010B107E0012010BD75
:10253000002084F83C00204600F01EF8022084F8B9
:102540003D00211D206801F031F9012084F846008A
:1025500084F83E0084F83F0084F8400084F841008D
:1025600084F8420084F8430084F8440084F845006D
:1025700084F83D00002010BD7047000090F83D1029
:10258000012901D001207047022180F83D10016827
:10259000CA6842F00102CA6000681149884214D03A
:1025A000B0F1804F11D00F4988420ED00E498842B9
:1025B0000BD00E49884208D00D49884205D00D49FC
:1025C000884202D00C49884204D1816801F0070199
:1025D000062903D0016841F0010101600020704725
:1025E000000001400004004000080040000C0040D2
:1025F00000040140004001400018004070472DE9F0
:10260000F04104460068C66805694FF00007A90755
:1026100013D5B10711D5F91E01610120207720687B
:1026200080698007204602D0FFF7E8FF04E000F051
:102630007EF8204600F07CF82777680716D57007EB
:1026400014D521686FF0040008610220207720680B
:10265000806910F4407F204602D0FFF7CFFF04E0EE
:1026600000F065F8204600F063F82777280715D5B5
:10267000300713D521686FF0080008610420207727
:102680002068C0698007204602D0FFF7B7FF04E04A
:1026900000F04DF8204600F04BF82777E80616D5F5
:1026A000F00614D521686FF010000861082020772B
:1026B0002068C06910F4407F204602D0FFF79EFFDB
:1026C00004E000F034F8204600F032F82777E807FD
:1026D00008D0F00706D021686FF00100086120469D
:1026E00000F028F8280608D5300606D521686FF0D6
:1026F000800008612046FFF710FF680608D57006C5
:1027000006D521686FF040000861204600F01CF8F3
:10271000A8060AD5B00608D521686FF02000086128
:102720002046BDE8F041FFF7F9BEBDE8F0817047F3
:102730007047000000680349884201D1FFF76EB975
:102740007047000000140040704770477047000059
:10275000F8B5016804460868CA684B6910F00F0FA5
:102760004FF0000559D003F0010602F4907737438B
:1027700065D0C10705D0D10503D5616C41F00101D9
:102780006164410705D5D90703D0616C41F00201AE
:102790006164810705D5D90703D0616C41F004015C
:1027A0006164010707D502F02001314303D0616C59
:1027B00041F008016164616C00293AD0800604D5BB
:1027C000900602D5204601F098F820684069616CB7
:1027D000C0F38010090700D460B3204601F066F80A
:1027E00020684069400621D52068143050E8001F59
:1027F00021F0400140E80012002AF5D1E06BA8B1B9
:102800006E490165E06BFEF75DFE002811D0E06BBC
:10281000016D01B0BDE8F040084783060FD593066F
:102820000DD52046BDE8F84001F067B82046FFF717
:102830008DFFF8BD2046FFF789FF6564F8BD266B64
:102840002023012E7DD1C6067BD5D60679D5086812
:102850004868009048694FF00206400641D5E16B98
:10286000086840680004000CE8D0A28D8242E5D9D7
:10287000E085C869B0F5807F2DD020680C3050E825
:10288000001F21F4807140E80012002AF5D1206871
:10289000143050E8001F21F0010140E80012002A26
:1028A000F5D12068143050E8001F21F0400140E8C5
:1028B0000012002AF5D184F84230256320680C30DC
:1028C00050E8001F21F0100140E80012002AF5D165
:1028D000E06BFEF7AEFD6663A08DE18D401A81B21C
:1028E0002AE0A08DE18D401A81B2E08D0028A5D0AC
:1028F0000029A3D022680C3252E8000F20F4907017
:1029000042E80007002FF5D12068143050E8002F6E
:1029100022F0010240E80027002FF5D184F8423070
:10292000256320680C3050E8002F22F0100240E8A8
:102930000023002BF5D166632046FFF706FFF8BDA4
:10294000FFE705062BD5150629D594F84100212867
:10295000F5D1A068B0F5805F01D12069B0B1206ADF
:10296000411C2162216800784860E08C401E000410
:10297000000CE084E3D12068C16821F08001C160CF
:102980002068C16841F04001C160D8E7206A008832
:10299000C0F308004860206A801C2062E5E740061A
:1029A000CDD55006CBD5CA68204622F04002CA6079
:1029B00084F8413000F0C6F9C1E700009D380008F6
:1029C00070B5040004D094F84100002510B106E071
:1029D000012070BD84F84050204600F023F82420E8
:1029E00084F841002068C16821F40051C16020468C
:1029F00000F0E4FF2068016921F490410161206842
:102A0000416921F02A0141612068C16841F4005107
:102A1000C1606564202084F8410084F84200656349
:102A2000002070BD2DE9F04786B0074614216846A6
:102A3000FDF784FC7248714A3B68002470491038E5
:102A400002250326DFF8BCA14FF00808934232D1DB
:102A50000A6842F480120A60096801F48011059145
:102A6000016841F004010160016801F00401059171
:102A7000016841F008010160006802AA00F0080046
:102A800005909814CDE9000582E8500169465E483A
:102A9000FEF79AFE0420CDE9000502AA694682E805
:102AA00050015046FEF790FE002205213520FFF729
:102AB0004DF8352023E0554A934225D10A6842F06B
:102AC00080420A60096801F080410591016841F087
:102AD00010010160006802AA00F0100005904FF498
:102AE000C070CDE9000582E8500169464848FEF70C
:102AF0006BFE002205215220FFF728F85220FFF735
:102B000017F806B0BDE8F087DFF808C10722634573
:102B100023D13B49091D0B6843F010030B60096882
:102B200001F010010591016841F0010101600068A8
:102B3000029400F0010005904FF4C060CDE900055B
:102B4000CDE9036269463448FEF73EFE00220521C6
:102B50002520FEF7FBFF2520D1E7DFF8C0C0634545
:102B6000CFD10B6843F480230B60096801F4802106
:102B70000591016841F002010160016801F0020164
:102B80000591016841F008010160006802AB00F0A6
:102B9000080005904FF40060CDE90005904683E8F9
:102BA000500169461E48FEF70FFE02AB4FF48079D4
:102BB00083E85001CDE9009569465046FEF704FED2
:102BC000194D184828604FF00060C5E90104401411
:102BD000C5E903406C61C5E906492C6228466C6270
:102BE000FEF752FD08B1FDF7C6FFFD630022052187
:102BF0002720AF63FEF7AAFF272080E700500040A0
:102C000040380240000C02400008024000780040BA
:102C10000010024000100140000002400048004047
:102C200000040240286002405C10002090F842300E
:102C3000202B01D00220704721B11AB10023036379
:102C400000F042BF0120704710B5044600680E49ED
:102C5000884201D102F0AAFD1E220C490C48FFF760
:102C6000E5FF0C49206888420CD10C480A49C0781D
:102C700003F07AF809490122BDE81040C91C084850
:102C8000FFF7D4BF10BD000000100140684F0020C6
:102C9000CC0F00200050004054520020CC000020F7
:102CA0003C0F00202DE9F843044690F84100984677
:102CB00016460D46202802D00220BDE8F88385B1D3
:102CC0007EB100206064212084F84100FEF7A0FE60
:102CD000A6848146E684A0682027B0F5805F02D0F4
:102CE00003E00120E9E7206910B12E4600250EE03F
:102CF00000260CE08021204600F001FFA8B9C6B1F3
:102D000016F8010B21684860E08C401EE084E08CDE
:102D10004B464FF00002CDF800800028EAD14FF07A
:102D20004001204600F0EBFE40B184F841700320E2
:102D3000C3E735F8020BC0F30800E3E784F84170FD
:102D40000020BAE77047FEE70F4810B50D49016053
:102D50000521416000214FF440328160C0E9031237
:102D600012014261017641768176C1760177417721
:102D7000FEF793F9002803D0BDE81040FDF7FBBE35
:102D800010BD0000006400403C0E00200F4810B54C
:102D90000D4901600521416000214FF440328160FE
:102DA000C0E9031212014261017641768176C17653
:102DB00001774177FEF771F9002803D0BDE8104094
:102DC000FDF7D9BE10BD000000680040640E002071
:102DD000094808B5016841F400110160006800224B
:102DE00000F40010009005210C20FEF7AFFEBDE8B6
:102DF00008400C20FEF79CBE3038024030B5CDB004
:102E000000254995012149A84A9503F01EF8514C27
:102E1000012160634B954BA84C9503F016F84E4D7D
:102E2000A0630DF1C40C95E80F008CE80F000021A1
:102E300031A802F0F7FF1035E06195E80F000DF1C1
:102E4000D40C103D8CE80F00002135A802F0EAFFF9
:102E50002035206295E80F000DF1E40C203D8CE850
:102E60000F00002139A802F0DDFF3035606295E8DF
:102E70000F000DF1F40C303D8CE80F0000213DA84F
:102E800002F0D0FF4035A06295E80F000DF5827C7E
:102E9000403D8CE80F00002141A802F0C3FF5035EF
:102EA000E06295E80F0045AD85E80F00002145A8D8
:102EB00002F0B8FF284920631C2260316846FDF704
:102EC00024FA0021684602F0DFFF234920601C221B
:102ED0007C3107A8FDF719FA002107A802F0D4FFFA
:102EE0001D4960601C2298310EA8FDF70EFA0021E2
:102EF0000EA802F0C9FF1849A0601C22B43115A821
:102F0000FDF703FA002115A802F0BEFF1249E060A8
:102F10001C22D0311CA8FDF7F8F900211CA802F0F2
:102F2000B3FF0D4920611C22EC3123A8FDF7EDF918
:102F3000002123A802F0A8FF60611C2207492AA8EB
:102F4000FDF7E3F900212AA802F09EFFA0614DB031
:102F500030BD0000000000207C8100088482000851
:102F60002DE9F04786B014216846FDF7E7F943489C
:102F70000024016841F080010160016801F08001D6
:102F80000591016841F004010160016801F004014C
:102F90000591016841F001010160016801F0010142
:102FA0000591016841F002010160016801F0020130
:102FB0000591016841F010010160016801F0100104
:102FC0000591016841F00801016000682C4F00F094
:102FD00008004FF488750590002229463846FEF710
:102FE00012FDDFF8A080002220214046FEF70BFDF5
:102FF000DFF8949049F21A06002231464846FEF75F
:1030000002FDDFF888A00022F0215046FEF7FBFC0D
:1030100000950125CDE90154694638460394FEF731
:10302000D3FB1020CDE90004694640460294FEF728
:10303000CBFB20200090CDE9015469464046039423
:10304000FEF7C2FBCDE90054694648460294FEF7FC
:10305000BBFB0096CDE90154694648460394FEF750
:10306000B3FBF0200090CDE901546946504603942B
:10307000FEF7AAFB06B0BDE8F0870000303802403A
:10308000000002400008024000040240000C024020
:10309000104810B50E4901604FF482714160002163
:1030A0008160C1604FF400720161C0E905122822FD
:1030B000C0E90721416281620A21C162FFF770F80D
:1030C000002803D0BDE81040FDF755BD10BD00003D
:1030D000003001408C0E0020104810B50E490160F0
:1030E0004FF48271416000218160C1604FF4007231
:1030F0000161C0E905121822C0E90721416281621D
:103100000A21C162FFF74CF8002803D0BDE8104047
:10311000FDF731BD10BD000000380040E40E002076
:103120000C4810B50A4901604FF4E13141600021BB
:1031300081600C22C160C0E904128161C161FFF7A6
:103140003FFC002803D0BDE81040FDF714BD10BDC2
:10315000005000403C0F00200C4810B50A490160A7
:103160004FF416514160002181600C22C160C0E91A
:1031700004128161C161FFF723FC002803D0BDE880
:103180001040FDF7F8BC10BD00780040840F00200F
:103190000C4810B50A4901604FF4E131416000214B
:1031A00081600C22C160C0E904128161C161FFF736
:1031B00007FC002803D0BDE81040FDF7DCBC10BDC3
:1031C00000100140CC0F00200C4810B50A490160E6
:1031D0004FF4E1314160002181600C22C160C0E9FF
:1031E00004128161C161FFF7EBFB002803D0BDE849
:1031F0001040FDF7C0BC10BD004800401410002076
:10320000FEE7FEE7704782694069002991B202D06B
:103210000122FEF7F8BB0022FBE70269C068002923
:1032200091B202D00122FEF7EEBB0022FBE7018C37
:10323000C06989B2FEF7E2BB2DE9FF471746DDE919
:103240000C9A884604461E4600251C220EA908300A
:10325000FDF75BF894B1B8F1000F0FD076B1B9F17A
:10326000000F0BD0BAF1000F08D004F12C00C4F805
:10327000248080E840062FB1A76205E0012004B059
:10328000BDE8F0871B48A0626E461BA00523D0E96D
:103290000010CDE902101AA002AAD0E90010CDE971
:1032A00000103021204600F09DF805236A461021C9
:1032B000204600F029F80020315CA52907D0052D13
:1032C0000ADA616B4FF4967088476D1CDDE7401C8D
:1032D0000528F1DB052D01DB0220D0E700200146A7
:1032E0002154401C0828FBDB0121204600F042F954
:1032F0000020C4E705320008A5A5A5A5A50000008B
:10330000AAAAAAAAAA0000002DE9F04190460C46FC
:10331000826A1E460546002190476A6A2146284671
:1033200090470746002406E06A6AFF212846904736
:1033300008F80400641CB442F6DBAA6A012128469E
:1033400090473846BDE8F08170B50D46826A044664
:1033500000219047626A294620469047626AFF2111
:10336000204690470546A26A0121204690472846FC
:1033700070BD03B583B000218DF804104FF47A714D
:1033800000918068012301AA04A9FEF7CFFF9DF8F0
:10339000040005B000BD000070B50D4606460121D1
:1033A00000F0E8F807213046FFF7CEFF0C4C02464C
:1033B00027212070304600F034F8207840060CD5E4
:1033C00020232A4661213046FFF79EFFFF22E2219B
:1033D000304600F026F8002070BD012070BD0000CE
:1033E000E80000202DE9F04190460C46826A1E4616
:1033F0000546002190476A6A2146284690470746BD
:10340000002405E06A6A18F8041028469047641CF6
:10341000B442F7DBAA6A0121284690473846BDE846
:10342000F08170B50D46836A164604460021984720
:10343000626A2946204690470546626A3146204620
:103440009047A26A012120469047284670BD00009F
:10345000F8B515460E460B4600920446012202219D
:1034600000F02CF8A0B9134813490068B0FBF1F044
:103470004FF47A71484300906068B0F5827F0DD1B7
:103480003346002280212046009500F017F870B1E5
:10349000606D40F0200060650320F8BD009830B1F9
:1034A000401E009020688068C0430006F6D50020CA
:1034B000F8BD00004C00002000366E012DE9F843F5
:1034C0001E46914688460446089DFEF7A1FA401B19
:1034D000351AFEF79DFA074625480068C0F3CB3041
:1034E000684338E0701C37D0FEF792FAC01BA84240
:1034F00003D215B1009860B32CE02068416821F038
:10350000E00141606068B0F5827F0BD1A068B0F542
:10351000004F02D0B0F5806F04D12068016821F01F
:1035200040010160A06AB0F5005F09D12068016820
:1035300021F4005101602068016841F400510160EC
:10354000012084F85100002084F850000320BDE8D9
:10355000F8830025401E00902068816838EA010049
:1035600004D000214945BDD10020F0E70121F9E751
:103570004C00002070B50D46C26A044601219047F8
:10358000012D4FF005035AD03D4A30212046FFF768
:1035900029FF3B4A0523521D2A212046FFF722FF1F
:1035A000012221212046FFF73CFF01222221204653
:1035B000FFF737FF1A2224212046FFF732FF282287
:1035C00025212046FFF72DFF0F2226212046FFF759
:1035D00028FF0E2220212046FFF723FF002120464E
:1035E000FFF7B2FE207001212046FFF7ADFE6070AC
:1035F00002212046FFF7A8FEA07003212046FFF716
:10360000A3FEE07004212046FFF79EFE20710521F5
:103610002046FFF799FE607106212046FFF794FED1
:10362000A07107212046FFF78FFEE071616B142027
:1036300088472046E26ABDE8704000211047104AE2
:103640002A21521D2046FFF7CDFE012221212046CE
:10365000FFF7E7FE012222212046FFF7E2FE2822A3
:1036600025212046FFF7DDFE202231212046FFF7ED
:10367000D8FE0F2226212046FFF7D3FE0F22A9E70E
:10368000D882000810B541EA40110348029CC0E905
:103690000314C0E9002310BDE04E0020012002F019
:1036A000B5FBFBE730B5002300E05B1CC45C002CDD
:1036B000FBD103E00D5DC5545B1C641C9442F9DB37
:1036C00030BD000010B5502080F31188BFF34F8F3C
:1036D000BFF36F8F04F004FC18B104494FF0805021
:1036E0000860002080F3118810BD000004ED00E0A8
:1036F00030B593B030216846FCF720FE14210CA8A9
:10370000FCF71CFE20480025016841F08051016053
:10371000006800F0805011901C48016841F440415D
:1037200001600068022400F44040119001200090E4
:103730004FF4A02001906005CDE9064008AA0420BE
:10374000B42182E813000B906846FEF773FB08B1C2
:1037500072B6FEE7FEF72CFA08B172B6FEE70CA9C6
:103760000F2081E831004FF4A0500F904FF48050AB
:10377000109005210CA8FEF753FA002801D072B66C
:10378000FEE713B030BD000040380240007000403A
:103790000248016841F470010160704788ED00E063
:1037A0000148FEF72CBF0000BC100020F0B50268F5
:1037B000294C2A4D2A4E2B4F2B4B4FF0804CA042C8
:1037C00009D0604507D0A84205D0B04203D0B84226
:1037D00001D0984204D122F0700E4A6842EA0E02EB
:1037E000A0421BD0604519D0A84217D0B04215D0D6
:1037F000B84213D0984211D01C4DA8420ED01C4D97
:10380000A8420BD01B4DA84208D01B4DA84205D0A2
:103810001A4DA84202D01A4DA84203D122F4407595
:10382000CA682A434D6922F080022A4302608A68EE
:10383000C2620A688262A04201D0984201D109693D
:103840000163012141610169C90703D0016921F0C8
:1038500001010161F0BD00000000014000040040D2
:1038600000080040000C00400004014000400140FE
:10387000004401400048014000180040001C004086
:10388000002000400148FEF763BF00003C0F00200D
:103890000148FEF75DBF0000840F002010B5806B6B
:1038A0000021C185C184FEF751FF10BD01680C31B4
:1038B00051E8002F22F4907241E80023002BF5D14B
:1038C0000168143151E8002F22F0010241E8002381
:1038D000002BF5D1016B012909D101680C3151E8A8
:1038E000002F22F0100241E80023002BF5D1202107
:1038F00080F8421000210163704708B590F842102B
:10390000222901D0022008BD82684FF480539A42D8
:1039100001D1016921B1816A9A421BD04AB10AE002
:103920000268816A5268C2F308020A80816A891CAF
:1039300008E0026972B10268526802F07F020A7000
:10394000816A491C8162C18D491E0904090CC18527
:1039500003D01BE002685268F1E70168CA6822F0F0
:103960002002CA600168CA6822F48072CA600168D5
:103970004A6922F001024A61202180F842100021A8
:103980004163026B012A03D0FFF75EF9002008BDF6
:10399000016301680C3151E8002F22F0100241E868
:1039A0000023002BF5D101680A68D20602D50A6807
:1039B00049680091818DFEF7C8FEE7E770B50446BF
:1039C00000680169E26821F44051114301612169F5
:1039D000A068E26908436169114308432168CA6825
:1039E00049F20C639A430243CA6020684169A269A4
:1039F00021F440711143416131492068884202D06D
:103A00003049884202D1FEF7D5F901E0FEF7C2F94C
:103A1000E2690023192164253226B2F5004F62685D
:103A200028D0A0FB0101930F9200FCF73DFC01465A
:103A3000B0FBF5F06FF01802504301EB800006EB8D
:103A40000010B0FBF5F000F0F002B1FBF5F002EB76
:103A50000012B1FBF5F06FF01803584301EB800042
:103A600006EB0010B0FBF5F000F00F0021681044E9
:103A7000886070BDA0FB010192185B41FCF714FC4B
:103A80000146B0FBF5F00201B1FBF5F06FF0180351
:103A9000584301EB800006EBC000B0FBF5F000F0EE
:103AA000F80002EB4002B1FBF5F0584301EB800057
:103AB00006EBC000B0FBF5F000F00700D6E7000011
:103AC000001001400014014081628285C2850021FE
:103AD0004164222180F84210016921B10168CA685D
:103AE00042F48072CA6001684A6942F001024A6188
:103AF0000068C16841F02001C160002070472DE9D5
:103B0000F843984617460D460446089E24E0701C6C
:103B100022D0FDF77DFFA0EB0800B0421AD8CEB14D
:103B20002068C168490717D5802D15D0402D13D0C6
:103B30000168C94309070FD4016800254068009057
:103B40002046FFF7B3FE0820606484F8405001204F
:103B5000BDE8F8830320FBE72068006835EA000031
:103B600004D00020B842D2D00020F1E70120F9E7CC
:103B70000148FEF7EDBD0000CC0F002010B5044851
:103B800003F0E6FCBDE810400148FEF7E1BD00008F
:103B9000141000207CB50E49B1EE400A0422D1E990
:103BA0000001CDE900010B48014680ED000A68469E
:103BB000FFF778FD00246D46661E29193346012261
:103BC0000548FFF76FF8641C082CF6DB7CBD00008D
:103BD000C0820008D40000203C0F00207CB50E49B4
:103BE000B1EE400A0422D1E90201CDE900010B48FF
:103BF000014680ED000A6846FFF754FD00246D463B
:103C0000661E2919334601220548FFF74BF8641C4C
:103C1000082CF6DB7CBD0000C0820008D800002024
:103C20003C0F0020FEE703B401984100009850EAE1
:103C3000C12018BF04204A0D18BF40F0010040F217
:103C4000FF72B2EB515F08BF40F00200012808BFCD
:103C5000052002B070470907090E002804DB00F1B7
:103C6000E02080F80014704700F00F0000F1E02021
:103C700080F8141D7047000010B52F499FED2C1BD4
:103C80002DED020B84B0059820F000408842D8BF8B
:103C90009DED040B2DDD2949884209D1049840B9D6
:103CA0004FF0010000F0D4FC00F0A2FC06B010BD03
:103CB00005DB9DED040B00F08FFC06B010BD6846DF
:103CC0009DED040B00F0A0F810F0030004BF9DED83
:103CD000021B9DED000B0CD001280ED09DED021BA8
:103CE0009DED000B022817D0012000F0DDFB06B08F
:103CF00010BD00F0A5FA06B010BD9DED021B9DEDB4
:103D0000000B012000F0D0FB51EC100B81F00041C2
:103D100006B041EC100B10BD00F092FA51EC100B04
:103D200081F0004106B041EC100B10BD0000000016
:103D30000000000000000000FB21E93F0000F07FD0
:103D400010B52F499FED2C1B2DED020B84B005986B
:103D500020F000408842DCBF00209DED040B32DDE6
:103D60002849884209D1049840B94FF0010000F079
:103D70006FFC00F03DFC06B010BD05DB9DED040BB3
:103D800000F02AFC06B010BD68469DED040B00F063
:103D90003BF810F0030011D0012818D09DED021B54
:103DA0009DED000B02281AD000F04AFA51EC100BDE
:103DB00081F0004106B041EC100B10BD9DED021BDF
:103DC0009DED000B012000F06FFB06B010BD9DEDD6
:103DD000021B9DED000B00F033FA06B010BD012070
:103DE00000F062FB51EC100B81F0004106B041EC99
:103DF000100B10BD000000000000000000000000DB
:103E0000FB21E93F0000F07F2DE9F14F04462DED45
:103E1000020B2DED088B8AB09FEDE70B80ED020BB6
:103E2000139EE74826F0004585420ADC9DED120B03
:103E3000002084ED000B0AB0BDEC088B03B0BDE898
:103E4000F08FE0489FEDE0AB9FEDE1BBA84247DD7E
:103E5000E14F9FEDE39B9FEDE48B9DED120B53EC47
:103E60001A2B51EC100B002E1CDDFCF713FB41EC60
:103E7000100BBD4208D053EC1B2B51EC100BFCF780
:103E800009FBC4E900010BE053EC192B51EC100BBA
:103E9000FCF700FB53EC182BFCF7FCFAC4E900011B
:103EA0000120C8E7FCF755FA41EC100BBD4208D0E1
:103EB00053EC1B2B51EC100BFCF74BFAC4E900013F
:103EC0000BE053EC192B51EC100BFCF742FA53ECBE
:103ED000182BFCF73EFAC4E900014FF0FF30AAE7C7
:103EE000C348A84279DB9DED120B51EC100B01F099
:103EF0001DFD41EC180B9FEDC00B53EC102BFCF794
:103F0000CFFA9FEDBF1B53EC112BFCF722FAFCF705
:103F1000C6FB0746FCF7A5FB41EC190B53EC1A2B2B
:103F2000FCF7BEFA53EC182BFCF7B7FA41EC180B70
:103F300053EC1B2B51EC190BFCF7B2FADFF8C8A2BB
:103F400041EC100B4FEA15580125FA4453EC102BA5
:103F500051EC180BFCF79EFA032DC4E900013DD08B
:103F6000C1F30A5005EB4511A8EB0000113981425D
:103F700034DA0AEB051BB0EE48AA9BED000BF0EE1D
:103F800068AA53EC102B51EC190BFCF789FA41ECA1
:103F90001B0B51EC1A0B53EC1B2BFCF77BFA41EC7F
:103FA000180B51EC1A0B53EC182BFCF773FA53EC6B
:103FB0001B2BFCF76FFA9BED020B41EC1A0B53EC39
:103FC000102B51EC190BFCF76BFA53EC1A2BFCF786
:103FD00061FA41EC100B6D1CB8E70EE0002EA8BF93
:103FE0003846BFF628AF94ED000B51EC100B81F072
:103FF0000041C4E9000178421DE7C6F3130040F414
:10400000801EC6F30A50A0F2F530471100F01F05DC
:10401000C5F12000DDF848B0089000200690079018
:104020000520EC467949002D07EB0002794408BFD2
:1040300051F8221009D051F8223001EB8201AB4037
:104040004A68089922FA01F11943A1FB0E26A1FB47
:104050000B131A449A4234BF0123002303EB0608D2
:104060000CEB8003D3E901A60E448E4234BF01213C
:10407000002192448A4411B1924502D903E092454D
:1040800001D2012100E00021C3E901A641444CF81E
:104090002010011EA0F10100C4DC029800F10050C4
:1040A000850F0298DDE903678000DDF81480FCF7D6
:1040B000D8FA41EC1A0B3046FCF7E4FA9FED541B9A
:1040C00053EC112BFCF7ECF941EC1B0B3846FCF7D9
:1040D000D9FA9FED511B53EC112BFCF7E1F941ECA0
:1040E000180B4046FCF7CEFA9FED4D1B53EC112BFD
:1040F000FCF7D6F941EC190B51EC180B53EC192BCA
:10410000FCF727F953EC1B2BFCF723F953EC1A2B84
:10411000FCF71FF9CDE90801002008909DED080B80
:1041200053EC1A2B51EC100BFCF7B4F953EC1B2B8E
:10413000FCF7B0F953EC182BFCF7ACF953EC192B46
:10414000FCF7ABF99FED381B53EC112BFCF7A8F9EA
:104150009FED370B41EC180B53EC102B9DED080B2A
:1041600051EC100BFCF79CF953EC182BFCF7F1F811
:104170009FED310B41EC180B53EC102B9DED080B10
:1041800051EC100BFCF78CF953EC182BFCF7E1F811
:1041900041EC100B139810F0004F06D06D4251EC1B
:1041A000100B81F0004141EC100B284684ED000B10
:1041B00041E60000000000000000000000000000D8
:1041C000FB21E93F7CD9024000004054FB21F93F2C
:1041D0003163621A61B4D03DFB21F93F0000000059
:1041E0000000601A61B4D03D7370032E8A19A33B9E
:1041F000FB2139410000000083C8C96D305FE43FF6
:10420000000000000000E03FD24300002043000017
:10421000000000000000103E000000000000103C04
:10422000000000000000103A182D4454FB21F93D15
:104230003326A611460B113C00000054FB21F93D2A
:1042400010B52DED040B2DED088B82B0B0EE419A28
:10425000F0EE619A0B9820F000449FED4BABB4F167
:10426000795F11DA9DED0A0B51EC100BFCF717FA90
:10427000002801BFB0EE4A0AF0EE6A0A02B0BDECB7
:10428000088B04BF04B010BD9DED0A0B53EC102B3E
:1042900051EC100BFCF704F941EC180B3C480621DB
:1042A000B0EE480AF0EE680A784400F081F853EC6A
:1042B000182B51EC100BFCF7F3F89DED0A0B41ECB9
:1042C0001B0B53EC192B51EC100BFCF7E9F841ECEC
:1042D000190B53EC1B2B51EC180BFCF7E1F853ECCA
:1042E000192BFCF7D7F89FED2C0B41EC190B53EC75
:1042F000102B51EC180BFCF7D3F841EC100B2848AD
:10430000844210DA53EC192B51EC100BFCF7C2F875
:1043100053EC1A2BFCF7C1F841EC100B02B0BDECCA
:10432000088B04B010BD1F48A042BCBF9FED1E1BF0
:104330008DED001B06DBA4F500100190002000901D
:104340009DED001B51EC100B53EC112BFCF7A2F868
:104350009DED000B41EC180B53EC102B51EC1A0B9C
:10436000FCF798F841EC1A0B53EC192B51EC180B95
:10437000FCF790F853EC1A2BFCF78FF841EC100B7C
:10438000CCE7000000000000000000000000F03F4B
:104390004440000000000000000000000000E03F7A
:1043A0003333D33F0000E93F000000000000D23F5C
:1043B00070B504462DED028B4D1E00EBC500B0EE2E
:1043C000408AF0EE608A90ED000B35F0060017D0C1
:1043D00053EC182B51EC100BFCF762F841EC100B6E
:1043E0006D1E04EBC50090ED001B51EC100B53EC5F
:1043F000112BFBF7AEFF41EC100B35F00600E7D1B7
:10440000022D36D0042D1CD0062D1CBFBDEC028B16
:1044100070BD53EC182B51EC100BFCF741F894EDE8
:104420000A1B53EC112BFBF794FF53EC182BFCF7F2
:1044300037F894ED081B53EC112BFBF78AFF41EC86
:10444000100B53EC182B51EC100BFCF729F894EDE2
:10445000061B53EC112BFBF77CFF53EC182BFCF7DE
:104460001FF894ED040B53EC102BFBF772FF41EC9B
:10447000100B53EC182B51EC100BFCF711F894EDCA
:10448000021B53EC112BFBF764FF53EC182BFCF7CA
:1044900007F894ED001B53EC112BFBF75AFFBDEC12
:1044A000028B41EC100B70BD31B504462DED040BB1
:1044B0002DED0A8BB0EE41BAF0EE61BA0B989DED8E
:1044C0000A0B20F00040B0F1795F0DDA51EC100BCF
:1044D000FFF7A9FB042808BF00F09AF89DED0A0B2E
:1044E000BDEC0A8B05B030BD53EC102B51EC100B1A
:1044F000FBF7D6FF41EC180B9DED0A0B53EC182B84
:1045000051EC100BFBF7CCFF41EC190B2C48B0EE33
:10451000480AF0EE680A05217844FFF749FF9FED4D
:104520002ACBB0EE40AAF0EE60AA9CB353EC1C2B51
:1045300051EC190BFBF7B4FF41EC1C0B53EC1A2B9D
:1045400051EC190BFBF7ACFF9FED210B41EC190B64
:1045500053EC102B51EC1B0BFBF7A2FF53EC192B68
:10456000FBF798FF53EC182BFBF79AFF53EC1B2B30
:10457000FBF790FF53EC1C2BFBF78CFF9DED0A1B08
:1045800053EC112BFBF789FFBDEC0A8B05B041EC16
:10459000100B30BDFFE753EC1A2B51EC180BFBF757
:1045A0007FFF53EC1C2BFBF7D4FE53EC192BFBF7CE
:1045B00077FF9DED0A1B53EC112BFBF7CAFEE3E7D7
:1045C000CC3E000000000000495555555555C5BF6B
:1045D000000000000000E03F10B553EC102B51EC40
:1045E000100BFBF7B6FE41EC100B10BD00000000F5
:1045F0009FED050B10B553EC102B51EC100BFBF796
:10460000C1FF41EC100B10BD0000000000000000D5
:104610009FED050B10B553EC102B51EC100BFBF775
:104620003FFF41EC100B10BD000000000000001027
:1046300002E008C8121F08C1002AFAD1704770476B
:10464000002001E001C1121F002AFBD170470000C9
:104650000149086070470000E40B00202DE9F0419B
:1046600005462DED048B82B0E34B90F80E040090CC
:10467000B3F90220002A00DC5242B3F912100029DB
:1046800000DC49420A44B3F92210002900DC494207
:104690000A44B3F93210002900DC49421144CA1718
:1046A00001EB9271D54C891000276180DFEDD48A2F
:1046B000D44EDFF854839FEDD59A9FEDD58A0E280E
:1046C00070D00ADC0E2816D2DFE800F0131A2D3C59
:1046D0004B5A69798897A6B5C4D365380E280AD293
:1046E000DFE800F0DFF4FDF1F0EFEEEDECEBEAE9EE
:1046F000E8E7C5EDB48A02B0BDEC048BBDE8F081FB
:104700000422C449CFE000231A466946306803F00A
:10471000FBF985F80E746068401C6060EBE7284682
:1047200000F0B0F9E7E70422BB49D1E000231A46C4
:104730006946306803F0E8F985F80E74A068401CFB
:10474000A060D8E70322B549CBE000231A466946AA
:10475000306803F0D9F985F80E74E068401CE06019
:10476000C9E70322AE49C5E000231A46694630680E
:1047700003F0CAF985F80E742069401C2061BAE77D
:104780000322A849BFE000231A466946306803F0B7
:10479000BBF985F80E746069401C6061ABE70322C9
:1047A000A149B9E06FE000231A466946306803F07A
:1047B000ABF985F80E74A069401CA0619BE702224A
:1047C0009A49B2E000231A466946306803F09CF922
:1047D00085F80E74E069401CE0618CE7042294497E
:1047E000ACE000231A466946306803F08DF985F87D
:1047F0000E74206A401C20627DE702228D49A6E0EB
:1048000000231A466946306803F07EF985F80E7475
:10481000606A401C60626EE703228749A0E00023C3
:104820001A466946306803F06FF985F80E74A06A7D
:10483000401CA0625FE7032280499AE000231A46E9
:104840006946306803F060F985F80E74E06A401C30
:10485000E06250E703227A4994E000231A46694651
:10486000306803F051F985F80E74206B401C20630A
:1048700041E704227349284601F030FB01287FF408
:104880004EAF0E208DE001F035F8322002F072FFBD
:104890005D48183801F02AF8DFED6B0A70EEC09A17
:1048A00091E06A490422284601F018FB0128E6D16C
:1048B00029E779E06DE063E059E04FE045E03BE057
:1048C00031E027E01DE013E009E0FFE76049042242
:1048D000284601F003FB01283FF428AF1FE75D499C
:1048E0000322284601F0FAFA01283FF42EAF16E71A
:1048F00059490322284601F0F1FA01283FF434AF68
:104900000DE756490322284601F0E8FA01283FF452
:104910003AAF04E752490322284601F0DFFA0128A2
:104920003FF441AFFBE64F490222284601F0D6FA98
:1049300001283FF447AFF2E64B490422284601F034
:10494000CDFA01283FF44DAFE9E648490222284656
:1049500001F0C4FA01283FF453AFE0E644490322D2
:10496000284601F0BBFA01283FF459AFD7E6414988
:104970000322284601F0B2FA01283FF45FAFCEE6E9
:104980003D490322284601F0A9FA01283FF465AF0A
:10499000C5E604223949284601F0A0FA01289DD134
:1049A000722085F80E04A6E600F0A4FF322002F083
:1049B000E1FE15480C3800F099FFDFED310A30EECA
:1049C000600A70EE089A404600F090FF39EE400A07
:1049D00030EE480A30EE488AB0EE690AFFF7DAF89E
:1049E000B0EE480AFFF7FAF800231A466946306825
:1049F00003F08AF87DE60000484E0020F400002015
:104A000000000000240000209C4F002000C0DA4578
:104A100000009B434801002088010020C8010020BD
:104A2000F8010020280200205802002088020020FF
:104A3000A8020020E802002008030020380300201C
:104A400068030020980300200000754478060020C9
:104A5000B8060020F806002028070020580700208C
:104A600088070020B8070020D80700201808002079
:104A7000380800206808002098080020C808002096
:104A80000040A14410B504462DED028B9FED1D8A18
:104A900080EDC38A90EDA40A80EDB80A90EDAF0ACC
:104AA000D0F83C1300F53770884784EDC30A84EDD5
:104AB000DC8A94EDB50A04F5507084EDD10AD4F87F
:104AC000A01394EDA90A884784EDDC0A84EDF58AE9
:104AD00094EDB60A04F5697084EDEA0AD4F804147A
:104AE00094EDAA0A884784EDF50AD4EDDC0AC4EDFA
:104AF000A50A84EDA60A94EDC30A84EDA70ABDECCD
:104B0000028B10BD0000000010B504462DED028B95
:104B100090EDAF0AFBF7C8FF10EE100AFBF7DEFDC1
:104B200041EC100BFFF70CF951EC100BFBF7E9FD12
:104B300008EE100A94EDAF0AFBF7B6FF10EE100A6C
:104B4000FBF7CCFD41EC100BFFF796F851EC100B86
:104B5000FBF7D7FD00EE100A94EDA51AD4EDA60AD6
:104B600038EE402A78EE001AB1EE483A62EE012A99
:104B700033EE403A41EEA02AD4EDA71A72EEA12AF4
:104B8000C4ED112AF1EE402A72EEC82A62EE812AA3
:104B900042EE202A32EEA12A84ED122A30EE482A73
:104BA00030EE080A62EE012A20EE010A43EE202AC6
:104BB00002EE200A72EEA12A30EE210AC4ED132A79
:104BC00084ED140ABDEC028B10BD000070B504002A
:104BD0002DED068B7DD000F023FF97499FED978A3E
:104BE000206004F51270B0EE480A00F0D2FE92493F
:104BF000B0EE480A04F5167000F0CBFE8E49B0EE18
:104C0000480A091D04F51A7000F0C3FE8A49B0EE87
:104C1000480A091D04F51E7000F0BBFE04F15400A3
:104C2000054601F0E1FA00229FED858AB0EE484A80
:104C3000DFED848AB3EE0C3AF0EE482AF0EE683AE3
:104C4000DFED819AF0EE481AB3EE0E1AB0EE692A43
:104C50009FED7E9AF0EE490A9FED7DAAD4F8AC3024
:104C60000121B0EE4A0A2846984704F1B8000546EB
:104C700001F0BAFA0022D4F81031B0EE484AF0EE52
:104C8000683AB3EE0C3AF0EE482AB0EE692AF0EE3C
:104C9000481AB3EE0E1AF0EE490AB0EE4A0A0121A4
:104CA0002846984704F58E70054601F09DFA0022CB
:104CB000B0EE484AF0EE683AB3EE0C3AF0EE482A0D
:104CC000B0EE692AF0EE481AB3EE0E1AF0EE490A79
:104CD00000E0AEE0D4F87431B0EE4A0A0121284673
:104CE000984704F5C070054601F07EFA0022D4F81A
:104CF000D831B0EE484AF0EE683AB3EE0C3AF0EE36
:104D0000482AB0EE692AF0EE481AB3EE0E1AF0EE19
:104D1000490AB0EE4A0A01212846984704F5F27084
:104D2000054601F061FA0022B0EE484AF0EE483A3A
:104D3000DFED488AF0EE482AB0EE482AB0EE683A35
:104D4000F0EE481AB0EE001AF0EE490ADFED429A92
:104D5000D4F83C321146B0EE690A2846984704F56B
:104D60003770054601F040FA0022D4F83433B1EE32
:104D7000044AF0EE483AB0EE683AF0EE482AB0EE57
:104D8000482AF0EE481AB6EE001AF0EE490AB0EEE4
:104D9000690A11462846984704F55070054601F007
:104DA00023FADFED2E8A0022D4F89833B1EE044ABC
:104DB000F0EE483AB3EE043AF0EE482AB0EE482A54
:104DC000F0EE481AB1EE041AF0EE490AB0EE680AA5
:104DD00011462846984704F56970054601F004FA23
:104DE0000022D4F8FC33B0EE484AF0EE483AB2EE76
:104DF0000C3AF0EE482AB0EE482AF0EE481AB1EE2E
:104E0000041AF0EE490AB0EE680A1146284604F585
:104E10007F74984702F0CCFB0020A0732082012011
:104E2000A074207303206073002002F0DFFB0C49A4
:104E30008863BDEC068B70BDE48200086F12033BF3
:104E4000000000009A99193F0000484400409C452A
:104E500000007A460000484200803B450000FA44CA
:104E6000F4000020F8B50446854AB0F90C0400901F
:104E7000B2F90230002B00DC5B42B2F912100029BB
:104E800000DC49420B44B2F92210002900DC4942FF
:104E90000B44B2F93210002900DC49421944CA1708
:104EA00001EB9271774A891000260127764D5180D7
:104EB00026286ED016DC262828D2DFE800F0242829
:104EC000272727272727272727272727272D3D4934
:104ED0004C4F5255585B5E6164676B6E7174777AA4
:104EE0007D8083867338182810D2DFE800F074774D
:104EF0007A7D808386898C8F9295989B9EA1A4A7AA
:104F0000AAADB0B3B6BF204600F066F9F8BD9FED7C
:104F10005F0A84EDB40AF8BD02225D499FE00023D8
:104F20001A466946286802F0EFFDA4F80C74F8BD33
:104F30002046FFF7A7FDF8BD0122564998E000235F
:104F40001A466946286802F0DFFDA4F80C64F8BD33
:104F50000222514983E00122504989E0022250494E
:104F60007DE001224F4983E002224F4977E0012290
:104F70004E497DE002224E4971E001224D4977E021
:104F800002224D496BE001224C4971E002224C495A
:104F900065E01DE002224B496AE002224A495EE0D8
:104FA00002224A4964E00222494958E00222494962
:104FB0005EE00222484952E00222484958E00222BB
:104FC00047494CE00222474952E00222464946E066
:104FD000022246494CE00222454940E0012245496F
:104FE00046E0022244493AE00122444940E00222DC
:104FF000434934E0012243493AE0022242492EE08B
:105000000122424934E00222414928E0012241497B
:105010002EE00222404922E00122404928E00222FB
:105020003F491CE002223F4922E002223E4916E0AD
:1050300002223E491CE002223D4910E002223D4985
:1050400016E002223C490AE002223C4910E002221A
:105050003B4904E002223B490AE03B490222204648
:1050600000F03CFF01287FF463AF58E73749022284
:10507000204600F033FF01283FF461AF58E70000FD
:10508000484E0020F4000020240000200000000012
:10509000D803002058050020F803002068050020F0
:1050A000180400207805002038040020880500201E
:1050B000580400209805002078040020A80500204E
:1050C00098040020B8050020B8040020D80500206E
:1050D000D8040020F8050020F8040020180600205D
:1050E000180500203806002038050020580600204A
:1050F00008090020880A002028090020980A0020BA
:1051000048090020A80A002068090020B80A0020E9
:1051100088090020C80A0020A8090020D80A002019
:10512000C8090020E80A0020E8090020080B002038
:10513000080A0020280B0020280A0020480B002025
:10514000480A0020680B0020680A0020880B002015
:1051500070B5204E0546002405EB840090ED110A41
:1051600004EBC40000EB041005EB800106EB041017
:1051700081ED160AB0F9020000EE100A01F15400A8
:10518000D1F8B410B8EEC00A8847641CE4B2042C0D
:10519000E2D395ED6C0ABDEEC00A10EE100A95ED53
:1051A000530A03B2BDEEC00A10EE100A95ED3A0A9A
:1051B00002B2BDEEC00A10EE100A95ED210ABDE85C
:1051C0007040BDEEC00A01B210EE100A00B2FBF74B
:1051D00019BC0000484E00202DE9F04104002DEDDF
:1051E000028B75D09FED658A2068B0F90210A1F19D
:1051F00050025242A12A02D349420FB200E00027D6
:10520000B0F9045005F15001A12900D20025B0F9F0
:10521000006006F59670B0F5167F00D8002640F6BF
:10522000B83017FB00F14FF4257091FBF0F100EE60
:10523000101A40F6B831B8EEC00A15FB01F191FB27
:10524000F0F000EE900A04F51270F8EEE08A00F03B
:1052500079FBB0EE680A04F5167000F073FBB0EE4F
:10526000480A04F51A7000F06DFB4F379F2F01D2EA
:1052700084ED938A4F359F2D01D284ED978A40F2B9
:10528000572006F22B16864201D284ED9B8AD4ED7C
:10529000930A94ED971A94ED9B0AC4EDA50A84ED48
:1052A000A61A84EDA70A2068C17B01292FD1867B2D
:1052B0000021012302250322012E01D04EB126E058
:1052C000008A022815D0042810D0102814D11CE020
:1052D0004FE094F80964032E02D0022E0FD016E09E
:1052E000008A042802D0102806D102E084F80F2496
:1052F0000DE084F80F540AE084F80F1407E0008AE8
:10530000102802D04028F7D1F0E784F80F34B5EE2A
:10531000C00AF1EE10FA03D094EDAF0A84EDA40AAE
:1053200094F80F0480B1012804D0022805D0032886
:105330000AD105E084EDA48A06E09FED110A01E0A0
:105340009FED100A84EDA40A84ED858A94EDA40AE9
:1053500004F5F27084ED7A0AD4F8441294EDAF0AA1
:10536000884784ED850AD4EDA70A30EE800A84EDE3
:10537000A70ABDEC028BBDE8F08100000000000030
:105380000000B4420000B4C22DE9F04104460068B8
:105390003C4E3D4DC17B01291ED0022951D0022037
:1053A00084F80A0494F8080401285AD0002811D17E
:1053B000B4F90C04A0F17301172902D86438A4F8D9
:1053C0000C0494F80E04A0F165010D2902D864388C
:1053D00084F80E04BDE8F081002784F80A74817B0C
:1053E00002291FD1008A80280DD1204600F086F8BE
:1053F0002870204600F082F8401C1FD0204600F0A4
:105400007DF8A4F80C042068008A20280AD12046E0
:1054100000F074F8401C11D0204600F06FF80C30FA
:10542000A4F80C04184900223431306802F01CFC46
:105430000128B7D1A88EA4F80C04B3E7A4F80C7423
:10544000C8E70120104984F80A040022343130688A
:1054500002F00AFC0128A5D195F8340084F80E0466
:10546000A0E7B4F90C04A0F10F01172902D86430A9
:10547000A4F80C0494F80E04411E0D29AAD8643037
:10548000A6E700001C000020F40000202DED028B98
:105490001848FFF79BFB40F2651002F06BF94FF4E0
:1054A0007A5002F067F9134C9FED138A00251148DA
:1054B000FFF76AFF94F80A0420B1012806D00228F9
:1054C00010D107E00B48FFF7CDFC0BE00948FFF7D0
:1054D000C5F807E084EDA58A84EDA68A84EDA78A45
:1054E000A4F80C540348FFF70FFB052002F042F923
:1054F000DDE70000B44F00200000000010B52A4B8B
:1055000090F80844D0F8A4124FF0FF305A102CB194
:10551000264C0C44944227D2732010BD244C0C44DA
:10552000944201D20F2010BD224C0C44944201D26F
:10553000112010BD204C0C44944201D2132010BD08
:105540001E4A1F4C0A44A24201D2152010BD1D4A1A
:105550000A449A4201D2172010BD1B4A11441B4A2B
:105560009142F9D2192010BD194C0C44944201D239
:10557000752010BD174C0C44944201D2772010BD09
:10558000154A164C0A44A24201D2792010BD144A91
:105590000A449A4201D27B2010BD124A1144124A99
:1055A0009142F9D27D2010BDFF7F3E00FF4FA9BA86
:1055B000FFCFB53AFF0FD53AFF4FF43AFF1F273B15
:1055C000FFCF3200FF9F653BFF3FC83BFF9F62005C
:1055D000FF8FC8BAFFCFE7BAFF1F0EBBFF4F2600F1
:1055E000FF9F4CBBFF3F96BBFF9F4900F8B5B0EE55
:1055F000413AF0EE602A06461020B2EE091AFAEEA1
:10560000090A00F0CFF905460C209FED261ADFEDC0
:10561000260AB0EE620A00F0C5F9DFED252A04463D
:105620000C209FED221AF0EE620AB0EE430A00F061
:10563000B9F903460C20B1EE041AF0EE620AB0EE9E
:10564000610A00F0AFF902460C20B3EE021AFBEE3D
:10565000020AB0EE420A00F0A5F916490E600026D3
:105660008E60CE6008260E6113492E0A0E704D70B2
:10567000250924018D7044EA1324CC700B711309A1
:1056800012014B7142EA10228A71C8710B48FBF774
:10569000F0FB0028FAD06B46074A06490748FBF79B
:1056A0007EFAF8BD00003442000034C20000FA4324
:1056B00000000000C84E0020C4000020640E00203E
:1056C0000F4908B5086000208860C860082008619C
:1056D0000C48FF21017041708170C17001714171EE
:1056E0008171FC21C1710848FBF7C3FB0028FAD087
:1056F0006B46044A02490448FBF751FA08BD000012
:10570000C84E0020C4000020640E00200F4908B5D8
:10571000086000208860C860082008610C48FF21EC
:10572000017041708170C170017141718171FE2100
:10573000C1710848FBF79DFB0028FAD06B46044A6C
:1057400002490448FBF72BFA08BD0000C84E0020B0
:10575000C4000020640E002038B512211148FAF769
:10576000EDFD114800210068026842680092C2689D
:1057700042F01002C2600C4C0A4A94F84200123AFD
:1057800020280DD13223A262A38561642168E06BD9
:10579000091DFBF7E3FF2068416941F040014161C9
:1057A00038BD00001E4E00201410002070B5454981
:1057B00000202DED068B0A5C012A03D10A185278CD
:1057C000042A05D0401C0E28F5DBBDEC068B70BD0D
:1057D0000D1835F8030F40BAFAF754FF9FED3A9BC6
:1057E00053EC192BFAF7CEFEFAF78BFF354C0AEE85
:1057F000100A103C84ED00AA688840BAFAF742FF0C
:1058000053EC192BFAF7BEFEFAF77BFF08EE100AED
:1058100084ED018AA88840BAFAF734FF53EC192BBB
:10582000FAF7B0FEFAF76DFF08EE900AC4ED028AAF
:10583000E88840BAFAF726FF53EC192BFAF7A2FED4
:10584000FAF75FFF9FED221A9FED230ADFED212A71
:105850003AEE412A00EE900AF0EE401A04F12C00D4
:10586000C4ED030A42EE221A80ED00AA80ED038AFD
:10587000C0ED068AC0ED090AC0ED011ADFED171A66
:10588000DFED172A38EEC11A38EE612AF0EE401A21
:1058900030221C2142EE221AC0ED041ADFED111A4B
:1058A00001EE210A80ED070AB1EE000A30EEC00ACF
:1058B000DFED0D0A20EE200A80ED0A0A1C38FAF707
:1058C00036FD82E7684F00200000000000206F4096
:1058D00079E97E4083D108430080F2432FDD7C408C
:1058E000069D0843C3A508430000FA4390ED010A52
:1058F0007047000070B50122094D14022146284668
:10590000FCF781F84FF6FF73082206490648FDF7B9
:10591000C9F921462846BDE870400022FCF773B85B
:1059200000000240E0000020CC0F002082B0CDE952
:10593000000121F0004001909DED000B02B051EC00
:10594000100B704710B510EE103A03608168C26802
:1059500000EE101A00EE902A446830EE201A00EE95
:10596000101AC0EE010A00EE104A20EE801A00EE76
:10597000101A00EE902A70EE201A00EE102AC0EEE7
:10598000210A00EE103A00EE801A11EE101A416062
:1059900010BD10EE102AC26009688160002101600C
:1059A00041607047012131EE601A814070EE600A5B
:1059B000491E00EE101AB8EEC00A20EE800AC0EEB2
:1059C000010ABDEEE00A10EE100A704770B5134DE3
:1059D0000446012210212846FCF715F84FF4FA7608
:1059E000304601F0C7FE40F2EE21201D00F010F914
:1059F0004FF4487104F10E0000F00AF940F68E01F0
:105A000004F1180000F004F9304601F0B3FE284616
:105A1000BDE8704000221021FBF7F5BF00040240F2
:105A2000004870471E4E002070B5144D04460122F8
:105A300080212846FBF7E7FF4FF4FA76304601F065
:105A400099FE40F62E1104F1220000F0E1F84FF427
:105A5000966104F12C0000F0DBF84FF4077104F1BB
:105A6000360000F0D5F8304601F084FE2846BDE847
:105A7000704000228021FBF7C6BF0000000C0240EE
:105A800070B50E4D0446012210212846FBF7BBFFDE
:105A90004FF4FA76304601F06DFE40F68E0104F1C7
:105AA000180000F0B5F8304601F064FE2846BDE865
:105AB000704000221021FBF7A6BF00000004024046
:105AC00010B50188B0F90830CA1A994202DA02F515
:105AD000005101E0A2F50051002901DD0B4600E074
